:100000000C9462000C948A000C948A000C948A0070
:100010000C948A000C948A000C948A000C948A0038
:100020000C948A000C948A000C948A000C948A0028
:100030000C948A000C948A000C948A000C948A0018
:100040000C941A030C948A000C948A000C948A0075
:100050000C948A000C948A000C948A000C948A00F8
:100060000C948A000C948A000000000023002600F3
:10007000290000000000240027002A0000000000E2
:10008000250028002B0004040404040404040202D4
:100090000202020203030303030301020408102007
:1000A0004080010204081020010204081020000012
:1000B0000008000201000003040700000000000027
:1000C0000000710411241FBECFEFD8E0DEBFCDBF0A
:1000D00011E0A0E0B1E0E4E7F9E002C005900D9284
:1000E000A234B107D9F721E0A2E4B1E001C01D922A
:1000F000A536B207E1F710E0C2E6D0E004C02197D0
:10010000FE010E94B204C136D107C9F70E94640300
:100110000C94B8040C940000833081F028F48130F2
:1001200099F08230A9F008958730A9F08830C9F09D
:100130008430B1F4809180008F7D03C08091800075
:100140008F7780938000089584B58F7784BD08955C
:1001500084B58F7DFBCF8091B0008F778093B00006
:1001600008958091B0008F7DF9CF1F93CF93DF93D7
:10017000282F30E0F901E255FF4F8491F901E6564E
:10018000FF4FD491F901EA57FF4FC491CC23A9F056
:10019000162F81110E948C00EC2FF0E0EE0FFF1F54
:1001A000E458FF4FA591B4918FB7F894EC911111D9
:1001B00008C0D095DE23DC938FBFDF91CF911F91D4
:1001C0000895DE2BF8CFCF93DF9390E0FC01E65645
:1001D000FF4F24918A579F4FFC0184918823D1F0CF
:1001E00090E0880F991FFC01EE58FF4FA591B49144
:1001F000FC01E458FF4FC591D491623071F49FB770
:10020000F8943C91822F809583238C93E8812E2B48
:1002100028839FBFDF91CF9108958FB7F894EC9119
:100220002E2B2C938FBFF6CF3FB7F89480914901C6
:1002300090914A01A0914B01B0914C0126B5A89B29
:1002400005C02F3F19F00196A11DB11D3FBFBA2F68
:10025000A92F982F8827BC01CD01620F711D811D28
:10026000911D42E0660F771F881F991F4A95D1F7AD
:100270000895AF92BF92CF92DF92EF92FF920F93C9
:100280001F93CF93DF936C017B018B01040F151F2C
:10029000EB015E01AE18BF08C017D10759F0699194
:1002A000D601ED91FC910190F081E02DC6010995F8
:1002B000892B79F7C501DF91CF911F910F91FF90A5
:1002C000EF90DF90CF90BF90AF900895089590E0A9
:1002D00080E008958F929F92AF92BF920F931F93E9
:1002E000CF93DF93CDB7DEB7A1970FB6F894DEBFFB
:1002F0000FBECDBF19A2423008F44AE08E010F5D57
:100300001F4F842E912CB12CA12CA50194010E9489
:100310009004E62FB901CA01EA3044F5E05DD80146
:10032000EE938D01232B242B252B79F790E080E091
:10033000109769F0FD0101900020E9F73197AF01B6
:100340004A1B5B0BBD018DE491E00E943901A1962F
:100350000FB6F894DEBF0FBECDBFDF91CF911F91D6
:100360000F91BF90AF909F908F900895E95CD7CF89
:10037000FC0101900020E9F73197AF01481B590BB0
:10038000BC018DE491E00C943901CF93DF93EC0133
:1003900060E08E810E94B50061E08E810E94B50010
:1003A00060E08E810E94B5008BE891E00197F1F743
:1003B000DF91CF910895CF92DF92EF92FF920F934A
:1003C0001F93CF93DF936C017C0187E0E80EF11C53
:1003D000D0E0C0E0062F10E0B8010C2E02C07595E9
:1003E00067950A94E2F76170F70181917F010E949D
:1003F000B5002196C430D10579F7C601DF91CF91C0
:100400001F910F91FF90EF90DF90CF900C94C5015A
:10041000CF92DF92EF92FF920F931F93CF93DF93D0
:10042000EC01F62E642F8C810E94B5008D818F3FE8
:1004300019F060E00E94B5000F2D10E08F8584FF59
:1004400025C06E0187E0C80ED11CF12CE12CB8014B
:100450000E2C02C0759567950A94E2F76170F6015B
:1004600081916F010E94B500FFEFEF1AFF0A88E04B
:10047000E816F10461F7CE01DF91CF911F910F9142
:10048000FF90EF90DF90CF900C94C501B80184E00D
:10049000759567958A95E1F7CE010E94DB016F2D76
:1004A000CE01DF91CF911F910F91FF90EF90DF90E0
:1004B000CF900C94DB0140E0682F8DE491E00C9428
:1004C0000802CF93DF93613029F090915C0198602E
:1004D00090935C01609360011092610190E49093AD
:1004E000620180936301805C8093640161E080918C
:1004F00051010E94E300809152018F3F19F061E0A9
:100500000E94E30061E0809153010E94E300CDE48A
:10051000D1E09E012D54314080915C0184FD0BC0DF
:1005200084E090E021962817390744F461E08E8139
:100530000E94E300EECF88E090E0F4CF8BE39DE0F3
:100540000197F1F760E0809151010E94B50060E0F1
:10055000809153010E94B500809152018F3F19F0A4
:1005600060E00E94B50080915C0184FD39C063E0C9
:100570008DE491E00E94DB01CBE4D6E4CE0101974B
:10058000F1F763E08DE491E00E94DB012197F1F740
:1005900063E08DE491E00E94DB0183E592E0019746
:1005A000F1F762E08DE491E00E94DB0180915C0153
:1005B00080620E945B0284E080935D018CE00E9477
:1005C0005B0281E00E945B028BE39FE10197F1F700
:1005D00082E080935E0186E0DF91CF910C945B0214
:1005E00080620E945B028BE496E40197F1F78091B0
:1005F0005C0180620E945B0283E592E00197F1F763
:1006000080915C0180620E945B02D0CF909160017A
:10061000891710F08FEF890FE82FF0E0E35BFE4FB2
:10062000848980680C945B0241E00E94080281E0AA
:1006300090E008951F920F920FB60F9211242F93FE
:100640003F938F939F93AF93BF9380914501909178
:100650004601A0914701B09148013091440123E047
:10066000230F2D3758F50196A11DB11D209344018C
:100670008093450190934601A0934701B0934801B0
:100680008091490190914A01A0914B01B0914C0198
:100690000196A11DB11D8093490190934A01A09339
:1006A0004B01B0934C01BF91AF919F918F913F91BE
:1006B0002F910F900FBE0F901F90189526E8230FD3
:1006C0000296A11DB11DD2CF789484B5826084BDFD
:1006D00084B5816084BD85B5826085BD85B5816046
:1006E00085BD80916E00816080936E0010928100C4
:1006F000809181008260809381008091810081607F
:10070000809381008091800081608093800080913F
:10071000B10084608093B1008091B00081608093CB
:10072000B00080917A00846080937A0080917A0092
:10073000826080937A0080917A00816080937A0051
:1007400080917A00806880937A001092C10062E004
:1007500087E00E94E30061E086E00E94E30064E03D
:1007600084E10E94610280E00E9406038CE091E037
:100770000E94B80181E00E94060380E291E00E949D
:10078000B80183E00E94060385E391E00E94B8016E
:10079000C0904201D09043010D2C000CEE08FF08E0
:1007A0004AE0C701B601F7FE0EC041E06DE28DE4FC
:1007B00091E00E94080266277727CB016C197D091A
:1007C0008E099F094AE00E946A018FE391E00E942E
:1007D000B80125EB822E20E0922EC1EAD0E00DE890
:1007E00010E030E0A32E30E0B32EF4018491FE013E
:1007F000E490F801F490F1105EC080914201909174
:1008000043010196909343018093420183E00E944B
:10081000060385E391E00E94B801C0904201D090A8
:1008200043010D2C000CEE08FF084AE0C701B60199
:10083000F7FE0EC041E06DE28DE491E00E940802F7
:1008400066277727CB016C197D098E099F094AE03D
:100850000E946A018FE391E00E94B80161E086E0A6
:100860000E94B5000E9414012B013C0188ECC82EA7
:10087000D12CE12CF12C0E94140164197509860910
:100880009709683E734081059105A8F3F1E0CF1AFE
:10089000D108E108F10828EE420E23E0521E611C47
:1008A000711CC114D104E104F10429F760E086E071
:1008B0000E94B5000FC081110E948C00EF2DF0E066
:1008C000EE0FFF1FE859FF4FA591B4918C91E822DC
:1008D00009F493CFA114B10409F487CF0E9400005A
:1008E00084CFEDE4F1E01382128284E091E0918301
:1008F00080838DE084838FEF85838CE086838BE01B
:1009000087838AE0808789E0818788E082871386F1
:10091000148615861686178661E080E10C946102C4
:10092000A1E21A2EAA1BBB1BFD010DC0AA1FBB1FF3
:10093000EE1FFF1FA217B307E407F50720F0A21B65
:10094000B30BE40BF50B661F771F881F991F1A94D2
:1009500069F760957095809590959B01AC01BD01FC
:10096000CF010895EE0FFF1F0590F491E02D09943B
:04097000F894FFCF29
:100974000000000014033901670166012020544877
:100984004520425249474854204C49474854200086
:10099400205075736820427574746F6E20436F75B0
:1009A4006E7465720020436F756E74733A20002074
:0209B400200021
:00000001FF
